{
  "address": "0x4826533B4897376654Bb4d4AD88B7faFD0C98528",
  "abi": [
    {
      "inputs": [
        {
          "internalType": "contract IERC20",
          "name": "_dvd",
          "type": "address"
        },
        {
          "internalType": "contract IERC20",
          "name": "_xdvd",
          "type": "address"
        },
        {
          "internalType": "contract IUniswapV2Router02",
          "name": "_router",
          "type": "address"
        },
        {
          "internalType": "address",
          "name": "_wallet",
          "type": "address"
        }
      ],
      "stateMutability": "nonpayable",
      "type": "constructor"
    },
    {
      "anonymous": false,
      "inputs": [
        {
          "indexed": true,
          "internalType": "address",
          "name": "user",
          "type": "address"
        },
        {
          "indexed": true,
          "internalType": "contract IERC20",
          "name": "token",
          "type": "address"
        },
        {
          "indexed": false,
          "internalType": "uint256",
          "name": "dvdAmount",
          "type": "uint256"
        }
      ],
      "name": "BuyDVD",
      "type": "event"
    },
    {
      "anonymous": false,
      "inputs": [
        {
          "indexed": true,
          "internalType": "address",
          "name": "previousOwner",
          "type": "address"
        },
        {
          "indexed": true,
          "internalType": "address",
          "name": "newOwner",
          "type": "address"
        }
      ],
      "name": "OwnershipTransferred",
      "type": "event"
    },
    {
      "anonymous": false,
      "inputs": [
        {
          "indexed": false,
          "internalType": "uint256",
          "name": "minAmount",
          "type": "uint256"
        },
        {
          "indexed": false,
          "internalType": "uint256",
          "name": "amount",
          "type": "uint256"
        }
      ],
      "name": "SetAmount",
      "type": "event"
    },
    {
      "anonymous": false,
      "inputs": [
        {
          "indexed": true,
          "internalType": "address",
          "name": "who",
          "type": "address"
        },
        {
          "indexed": true,
          "internalType": "contract IERC20",
          "name": "token",
          "type": "address"
        },
        {
          "indexed": false,
          "internalType": "bool",
          "name": "allowed",
          "type": "bool"
        },
        {
          "indexed": false,
          "internalType": "uint256",
          "name": "decimals",
          "type": "uint256"
        }
      ],
      "name": "SetToken",
      "type": "event"
    },
    {
      "anonymous": false,
      "inputs": [
        {
          "indexed": true,
          "internalType": "address",
          "name": "who",
          "type": "address"
        },
        {
          "indexed": true,
          "internalType": "address",
          "name": "newWallet",
          "type": "address"
        }
      ],
      "name": "SetWallet",
      "type": "event"
    },
    {
      "inputs": [],
      "name": "amount",
      "outputs": [
        {
          "internalType": "uint256",
          "name": "",
          "type": "uint256"
        }
      ],
      "stateMutability": "view",
      "type": "function"
    },
    {
      "inputs": [
        {
          "internalType": "contract IERC20",
          "name": "_token",
          "type": "address"
        }
      ],
      "name": "buyDVD",
      "outputs": [
        {
          "internalType": "uint256",
          "name": "dvdAmount",
          "type": "uint256"
        }
      ],
      "stateMutability": "payable",
      "type": "function"
    },
    {
      "inputs": [],
      "name": "dvd",
      "outputs": [
        {
          "internalType": "contract IERC20",
          "name": "",
          "type": "address"
        }
      ],
      "stateMutability": "view",
      "type": "function"
    },
    {
      "inputs": [],
      "name": "minAmount",
      "outputs": [
        {
          "internalType": "uint256",
          "name": "",
          "type": "uint256"
        }
      ],
      "stateMutability": "view",
      "type": "function"
    },
    {
      "inputs": [],
      "name": "owner",
      "outputs": [
        {
          "internalType": "address",
          "name": "",
          "type": "address"
        }
      ],
      "stateMutability": "view",
      "type": "function"
    },
    {
      "inputs": [],
      "name": "renounceOwnership",
      "outputs": [],
      "stateMutability": "nonpayable",
      "type": "function"
    },
    {
      "inputs": [],
      "name": "router",
      "outputs": [
        {
          "internalType": "contract IUniswapV2Router02",
          "name": "",
          "type": "address"
        }
      ],
      "stateMutability": "view",
      "type": "function"
    },
    {
      "inputs": [
        {
          "internalType": "uint256",
          "name": "_minAmount",
          "type": "uint256"
        },
        {
          "internalType": "uint256",
          "name": "_amount",
          "type": "uint256"
        }
      ],
      "name": "setAmount",
      "outputs": [],
      "stateMutability": "nonpayable",
      "type": "function"
    },
    {
      "inputs": [
        {
          "internalType": "contract IERC20",
          "name": "_token",
          "type": "address"
        },
        {
          "internalType": "bool",
          "name": "_allowed",
          "type": "bool"
        },
        {
          "internalType": "uint256",
          "name": "_decimals",
          "type": "uint256"
        }
      ],
      "name": "setToken",
      "outputs": [],
      "stateMutability": "nonpayable",
      "type": "function"
    },
    {
      "inputs": [
        {
          "internalType": "address",
          "name": "_wallet",
          "type": "address"
        }
      ],
      "name": "setWallet",
      "outputs": [],
      "stateMutability": "nonpayable",
      "type": "function"
    },
    {
      "inputs": [
        {
          "internalType": "contract IERC20",
          "name": "",
          "type": "address"
        }
      ],
      "name": "token",
      "outputs": [
        {
          "internalType": "bool",
          "name": "allowed",
          "type": "bool"
        },
        {
          "internalType": "uint256",
          "name": "decimals",
          "type": "uint256"
        }
      ],
      "stateMutability": "view",
      "type": "function"
    },
    {
      "inputs": [
        {
          "internalType": "address",
          "name": "newOwner",
          "type": "address"
        }
      ],
      "name": "transferOwnership",
      "outputs": [],
      "stateMutability": "nonpayable",
      "type": "function"
    },
    {
      "inputs": [],
      "name": "wallet",
      "outputs": [
        {
          "internalType": "address",
          "name": "",
          "type": "address"
        }
      ],
      "stateMutability": "view",
      "type": "function"
    },
    {
      "inputs": [],
      "name": "xdvd",
      "outputs": [
        {
          "internalType": "contract IERC20",
          "name": "",
          "type": "address"
        }
      ],
      "stateMutability": "view",
      "type": "function"
    },
    {
      "stateMutability": "payable",
      "type": "receive"
    }
  ],
  "transactionHash": "0xa07429f88bca14b2317e8d9bb634a3d9618f55505181dcf15a2c67384cb8d0cd",
  "args": [
    "0x51e00a95748dbd2a3f47bc5c3b3e7b3f0fea666c",
    "0x70e0bA845a1A0F2DA3359C97E0285013525FFC49",
    "0x7a250d5630B4cF539739dF2C5dAcb4c659F2488D",
    "0xA63dDdB69E6e470Bf3d236B434EF80a213B998A7"
  ],
  "solcInputHash": "6edb462a9a6ca8d1d515056812e03c43",
  "bytecode": "0x60806040526101f460065560065460075534801561001c57600080fd5b506040516123923803806123928339818101604052608081101561003f57600080fd5b8101908080519060200190929190805190602001909291908051906020019092919080519060200190929190505050600061007e61023060201b60201c565b9050806000806101000a81548173ffffffffffffffffffffffffffffffffffffffff021916908373ffffffffffffffffffffffffffffffffffffffff1602179055508073ffffffffffffffffffffffffffffffffffffffff16600073ffffffffffffffffffffffffffffffffffffffff167f8be0079c531659141344cd1fd0a4f28419497f9722a3daafe3b4186f6b6457e060405160405180910390a3506001808190555083600260006101000a81548173ffffffffffffffffffffffffffffffffffffffff021916908373ffffffffffffffffffffffffffffffffffffffff16021790555082600360006101000a81548173ffffffffffffffffffffffffffffffffffffffff021916908373ffffffffffffffffffffffffffffffffffffffff16021790555081600460006101000a81548173ffffffffffffffffffffffffffffffffffffffff021916908373ffffffffffffffffffffffffffffffffffffffff16021790555080600560006101000a81548173ffffffffffffffffffffffffffffffffffffffff021916908373ffffffffffffffffffffffffffffffffffffffff16021790555050505050610238565b600033905090565b61214b806102476000396000f3fe6080604052600436106100e15760003560e01c8063aa8c217c1161007f578063deaa59df11610059578063deaa59df14610378578063f2fde38b146103c9578063f3ef3cff1461041a578063f887ea4014610472576100e8565b8063aa8c217c146102c7578063c6a023e9146102f2578063cc7db17314610337576100e8565b8063715018a6116100bb578063715018a6146102035780637bd0bd441461021a5780638da5cb5b1461025b5780639b2cb5d81461029c576100e8565b806348c40d17146100ed578063521eb273146101545780636d46a1db14610195576100e8565b366100e857005b600080fd5b3480156100f957600080fd5b506101526004803603606081101561011057600080fd5b81019080803573ffffffffffffffffffffffffffffffffffffffff169060200190929190803515159060200190929190803590602001909291905050506104b3565b005b34801561016057600080fd5b50610169610825565b604051808273ffffffffffffffffffffffffffffffffffffffff16815260200191505060405180910390f35b3480156101a157600080fd5b506101e4600480360360208110156101b857600080fd5b81019080803573ffffffffffffffffffffffffffffffffffffffff16906020019092919050505061084b565b6040518083151581526020018281526020019250505060405180910390f35b34801561020f57600080fd5b5061021861087c565b005b34801561022657600080fd5b5061022f6109e9565b604051808273ffffffffffffffffffffffffffffffffffffffff16815260200191505060405180910390f35b34801561026757600080fd5b50610270610a0f565b604051808273ffffffffffffffffffffffffffffffffffffffff16815260200191505060405180910390f35b3480156102a857600080fd5b506102b1610a38565b6040518082815260200191505060405180910390f35b3480156102d357600080fd5b506102dc610a3e565b6040518082815260200191505060405180910390f35b3480156102fe57600080fd5b506103356004803603604081101561031557600080fd5b810190808035906020019092919080359060200190929190505050610a44565b005b34801561034357600080fd5b5061034c610b48565b604051808273ffffffffffffffffffffffffffffffffffffffff16815260200191505060405180910390f35b34801561038457600080fd5b506103c76004803603602081101561039b57600080fd5b81019080803573ffffffffffffffffffffffffffffffffffffffff169060200190929190505050610b6e565b005b3480156103d557600080fd5b50610418600480360360208110156103ec57600080fd5b81019080803573ffffffffffffffffffffffffffffffffffffffff169060200190929190505050610cbb565b005b61045c6004803603602081101561043057600080fd5b81019080803573ffffffffffffffffffffffffffffffffffffffff169060200190929190505050610ead565b6040518082815260200191505060405180910390f35b34801561047e57600080fd5b5061048761192c565b604051808273ffffffffffffffffffffffffffffffffffffffff16815260200191505060405180910390f35b6104bb611952565b73ffffffffffffffffffffffffffffffffffffffff166104d9610a0f565b73ffffffffffffffffffffffffffffffffffffffff1614610562576040517f08c379a00000000000000000000000000000000000000000000000000000000081526004018080602001828103825260208152602001807f4f776e61626c653a2063616c6c6572206973206e6f7420746865206f776e657281525060200191505060405180910390fd5b6105818373ffffffffffffffffffffffffffffffffffffffff1661195a565b6105d6576040517f08c379a00000000000000000000000000000000000000000000000000000000081526004018080602001828103825260328152602001806120e46032913960400191505060405180910390fd5b6040518060400160405280831515815260200182815250600860008573ffffffffffffffffffffffffffffffffffffffff1673ffffffffffffffffffffffffffffffffffffffff16815260200190815260200160002060008201518160000160006101000a81548160ff0219169083151502179055506020820151816001015590505060008373ffffffffffffffffffffffffffffffffffffffff1663dd62ed3e30600460009054906101000a900473ffffffffffffffffffffffffffffffffffffffff166040518363ffffffff1660e01b8152600401808373ffffffffffffffffffffffffffffffffffffffff1681526020018273ffffffffffffffffffffffffffffffffffffffff1681526020019250505060206040518083038186803b15801561070257600080fd5b505afa158015610716573d6000803e3d6000fd5b505050506040513d602081101561072c57600080fd5b810190808051906020019092919050505014156107b1576107b0600460009054906101000a900473ffffffffffffffffffffffffffffffffffffffff167fffffffffffffffffffffffffffffffffffffffffffffffffffffffffffffffff8573ffffffffffffffffffffffffffffffffffffffff1661196d9092919063ffffffff16565b5b8273ffffffffffffffffffffffffffffffffffffffff163373ffffffffffffffffffffffffffffffffffffffff167fe0fd599ed5dec8fca23e1ad5e871dd1b5cee59c1c2c565fcee2a58d844100ef584846040518083151581526020018281526020019250505060405180910390a3505050565b600560009054906101000a900473ffffffffffffffffffffffffffffffffffffffff1681565b60086020528060005260406000206000915090508060000160009054906101000a900460ff16908060010154905082565b610884611952565b73ffffffffffffffffffffffffffffffffffffffff166108a2610a0f565b73ffffffffffffffffffffffffffffffffffffffff161461092b576040517f08c379a00000000000000000000000000000000000000000000000000000000081526004018080602001828103825260208152602001807f4f776e61626c653a2063616c6c6572206973206e6f7420746865206f776e657281525060200191505060405180910390fd5b600073ffffffffffffffffffffffffffffffffffffffff1660008054906101000a900473ffffffffffffffffffffffffffffffffffffffff1673ffffffffffffffffffffffffffffffffffffffff167f8be0079c531659141344cd1fd0a4f28419497f9722a3daafe3b4186f6b6457e060405160405180910390a360008060006101000a81548173ffffffffffffffffffffffffffffffffffffffff021916908373ffffffffffffffffffffffffffffffffffffffff160217905550565b600260009054906101000a900473ffffffffffffffffffffffffffffffffffffffff1681565b60008060009054906101000a900473ffffffffffffffffffffffffffffffffffffffff16905090565b60065481565b60075481565b610a4c611952565b73ffffffffffffffffffffffffffffffffffffffff16610a6a610a0f565b73ffffffffffffffffffffffffffffffffffffffff1614610af3576040517f08c379a00000000000000000000000000000000000000000000000000000000081526004018080602001828103825260208152602001807f4f776e61626c653a2063616c6c6572206973206e6f7420746865206f776e657281525060200191505060405180910390fd5b81600681905550806007819055507f6a1a1ff90ae3fd5b978159d028ceb33c54751ea49f6a1d7e64ddfc954aa9785e600654600754604051808381526020018281526020019250505060405180910390a15050565b600360009054906101000a900473ffffffffffffffffffffffffffffffffffffffff1681565b610b76611952565b73ffffffffffffffffffffffffffffffffffffffff16610b94610a0f565b73ffffffffffffffffffffffffffffffffffffffff1614610c1d576040517f08c379a00000000000000000000000000000000000000000000000000000000081526004018080602001828103825260208152602001807f4f776e61626c653a2063616c6c6572206973206e6f7420746865206f776e657281525060200191505060405180910390fd5b80600560006101000a81548173ffffffffffffffffffffffffffffffffffffffff021916908373ffffffffffffffffffffffffffffffffffffffff1602179055508073ffffffffffffffffffffffffffffffffffffffff163373ffffffffffffffffffffffffffffffffffffffff167f8595877311e370fe3ac87d4f6d12473603393f02ac660e68d2e5e3da5adb610c60405160405180910390a350565b610cc3611952565b73ffffffffffffffffffffffffffffffffffffffff16610ce1610a0f565b73ffffffffffffffffffffffffffffffffffffffff1614610d6a576040517f08c379a00000000000000000000000000000000000000000000000000000000081526004018080602001828103825260208152602001807f4f776e61626c653a2063616c6c6572206973206e6f7420746865206f776e657281525060200191505060405180910390fd5b600073ffffffffffffffffffffffffffffffffffffffff168173ffffffffffffffffffffffffffffffffffffffff161415610df0576040517f08c379a0000000000000000000000000000000000000000000000000000000008152600401808060200182810382526026815260200180611ff56026913960400191505060405180910390fd5b8073ffffffffffffffffffffffffffffffffffffffff1660008054906101000a900473ffffffffffffffffffffffffffffffffffffffff1673ffffffffffffffffffffffffffffffffffffffff167f8be0079c531659141344cd1fd0a4f28419497f9722a3daafe3b4186f6b6457e060405160405180910390a3806000806101000a81548173ffffffffffffffffffffffffffffffffffffffff021916908373ffffffffffffffffffffffffffffffffffffffff16021790555050565b60003273ffffffffffffffffffffffffffffffffffffffff163373ffffffffffffffffffffffffffffffffffffffff1614610f50576040517f08c379a00000000000000000000000000000000000000000000000000000000081526004018080602001828103825260078152602001807f4e6f7420454f410000000000000000000000000000000000000000000000000081525060200191505060405180910390fd5b60026001541415610fc9576040517f08c379a000000000000000000000000000000000000000000000000000000000815260040180806020018281038252601f8152602001807f5265656e7472616e637947756172643a207265656e7472616e742063616c6c0081525060200191505060405180910390fd5b6002600181905550600860008373ffffffffffffffffffffffffffffffffffffffff1673ffffffffffffffffffffffffffffffffffffffff16815260200190815260200160002060000160009054906101000a900460ff16611093576040517f08c379a00000000000000000000000000000000000000000000000000000000081526004018080602001828103825260118152602001807f546f6b656e206e6f7420616c6c6f77656400000000000000000000000000000081525060200191505060405180910390fd5b6110ea600860008473ffffffffffffffffffffffffffffffffffffffff1673ffffffffffffffffffffffffffffffffffffffff16815260200190815260200160002060010154600654611b3290919063ffffffff16565b8273ffffffffffffffffffffffffffffffffffffffff166370a08231600560009054906101000a900473ffffffffffffffffffffffffffffffffffffffff166040518263ffffffff1660e01b8152600401808273ffffffffffffffffffffffffffffffffffffffff16815260200191505060206040518083038186803b15801561117357600080fd5b505afa158015611187573d6000803e3d6000fd5b505050506040513d602081101561119d57600080fd5b81019080805190602001909291905050501015611205576040517f08c379a000000000000000000000000000000000000000000000000000000000815260040180806020018281038252602281526020018061201b6022913960400191505060405180910390fd5b600061125e600860008573ffffffffffffffffffffffffffffffffffffffff1673ffffffffffffffffffffffffffffffffffffffff16815260200190815260200160002060010154600754611b3290919063ffffffff16565b90506000600460009054906101000a900473ffffffffffffffffffffffffffffffffffffffff1673ffffffffffffffffffffffffffffffffffffffff1663ad5c46486040518163ffffffff1660e01b815260040160206040518083038186803b1580156112ca57600080fd5b505afa1580156112de573d6000803e3d6000fd5b505050506040513d60208110156112f457600080fd5b81019080805190602001909291905050509050611356600560009054906101000a900473ffffffffffffffffffffffffffffffffffffffff1630848773ffffffffffffffffffffffffffffffffffffffff16611bb8909392919063ffffffff16565b6000600267ffffffffffffffff8111801561137057600080fd5b5060405190808252806020026020018201604052801561139f5781602001602082028036833780820191505090505b50905084816000815181106113b057fe5b602002602001019073ffffffffffffffffffffffffffffffffffffffff16908173ffffffffffffffffffffffffffffffffffffffff168152505081816001815181106113f857fe5b602002602001019073ffffffffffffffffffffffffffffffffffffffff16908173ffffffffffffffffffffffffffffffffffffffff16815250506000600460009054906101000a900473ffffffffffffffffffffffffffffffffffffffff1673ffffffffffffffffffffffffffffffffffffffff166318cbafe58560008530426040518663ffffffff1660e01b815260040180868152602001858152602001806020018473ffffffffffffffffffffffffffffffffffffffff168152602001838152602001828103825285818151815260200191508051906020019060200280838360005b838110156114f85780820151818401526020810190506114dd565b505050509050019650505050505050600060405180830381600087803b15801561152157600080fd5b505af1158015611535573d6000803e3d6000fd5b505050506040513d6000823e3d601f19601f82011682018060405250602081101561155f57600080fd5b810190808051604051939291908464010000000082111561157f57600080fd5b8382019150602082018581111561159557600080fd5b82518660208202830111640100000000821117156115b257600080fd5b8083526020830192505050908051906020019060200280838360005b838110156115e95780820151818401526020810190506115ce565b505050509050016040525050509050828260008151811061160657fe5b602002602001019073ffffffffffffffffffffffffffffffffffffffff16908173ffffffffffffffffffffffffffffffffffffffff1681525050600260009054906101000a900473ffffffffffffffffffffffffffffffffffffffff168260018151811061167057fe5b602002602001019073ffffffffffffffffffffffffffffffffffffffff16908173ffffffffffffffffffffffffffffffffffffffff1681525050600460009054906101000a900473ffffffffffffffffffffffffffffffffffffffff1673ffffffffffffffffffffffffffffffffffffffff16637ff36ab5826001845103815181106116f857fe5b6020026020010151600085600360009054906101000a900473ffffffffffffffffffffffffffffffffffffffff16426040518663ffffffff1660e01b815260040180858152602001806020018473ffffffffffffffffffffffffffffffffffffffff168152602001838152602001828103825285818151815260200191508051906020019060200280838360005b838110156117a1578082015181840152602081019050611786565b50505050905001955050505050506000604051808303818588803b1580156117c857600080fd5b505af11580156117dc573d6000803e3d6000fd5b50505050506040513d6000823e3d601f19601f82011682018060405250602081101561180757600080fd5b810190808051604051939291908464010000000082111561182757600080fd5b8382019150602082018581111561183d57600080fd5b825186602082028301116401000000008211171561185a57600080fd5b8083526020830192505050908051906020019060200280838360005b83811015611891578082015181840152602081019050611876565b505050509050016040525050509050806001815181106118ad57fe5b602002602001015194508573ffffffffffffffffffffffffffffffffffffffff163373ffffffffffffffffffffffffffffffffffffffff167f36a381f1cedfb2c31a1deca7cac6d8896234d642f9e0d54d69fdfda0fcd852be876040518082815260200191505060405180910390a35050505060018081905550919050565b600460009054906101000a900473ffffffffffffffffffffffffffffffffffffffff1681565b600033905090565b600080823b905060008111915050919050565b6000811480611a3b575060008373ffffffffffffffffffffffffffffffffffffffff1663dd62ed3e30856040518363ffffffff1660e01b8152600401808373ffffffffffffffffffffffffffffffffffffffff1681526020018273ffffffffffffffffffffffffffffffffffffffff1681526020019250505060206040518083038186803b1580156119fe57600080fd5b505afa158015611a12573d6000803e3d6000fd5b505050506040513d6020811015611a2857600080fd5b8101908080519060200190929190505050145b611a90576040517f08c379a00000000000000000000000000000000000000000000000000000000081526004018080602001828103825260368152602001806120ae6036913960400191505060405180910390fd5b611b2d8363095ea7b360e01b8484604051602401808373ffffffffffffffffffffffffffffffffffffffff16815260200182815260200192505050604051602081830303815290604052907bffffffffffffffffffffffffffffffffffffffffffffffffffffffff19166020820180517bffffffffffffffffffffffffffffffffffffffffffffffffffffffff8381831617835250505050611c79565b505050565b600080831415611b455760009050611bb2565b6000828402905082848281611b5657fe5b0414611bad576040517f08c379a00000000000000000000000000000000000000000000000000000000081526004018080602001828103825260218152602001806120636021913960400191505060405180910390fd5b809150505b92915050565b611c73846323b872dd60e01b858585604051602401808473ffffffffffffffffffffffffffffffffffffffff1681526020018373ffffffffffffffffffffffffffffffffffffffff1681526020018281526020019350505050604051602081830303815290604052907bffffffffffffffffffffffffffffffffffffffffffffffffffffffff19166020820180517bffffffffffffffffffffffffffffffffffffffffffffffffffffffff8381831617835250505050611c79565b50505050565b6000611cdb826040518060400160405280602081526020017f5361666545524332303a206c6f772d6c6576656c2063616c6c206661696c65648152508573ffffffffffffffffffffffffffffffffffffffff16611d689092919063ffffffff16565b9050600081511115611d6357808060200190516020811015611cfc57600080fd5b8101908080519060200190929190505050611d62576040517f08c379a000000000000000000000000000000000000000000000000000000000815260040180806020018281038252602a815260200180612084602a913960400191505060405180910390fd5b5b505050565b6060611d778484600085611d80565b90509392505050565b606082471015611ddb576040517f08c379a000000000000000000000000000000000000000000000000000000000815260040180806020018281038252602681526020018061203d6026913960400191505060405180910390fd5b611de48561195a565b611e56576040517f08c379a000000000000000000000000000000000000000000000000000000000815260040180806020018281038252601d8152602001807f416464726573733a2063616c6c20746f206e6f6e2d636f6e747261637400000081525060200191505060405180910390fd5b6000808673ffffffffffffffffffffffffffffffffffffffff1685876040518082805190602001908083835b60208310611ea55780518252602082019150602081019050602083039250611e82565b6001836020036101000a03801982511681845116808217855250505050505090500191505060006040518083038185875af1925050503d8060008114611f07576040519150601f19603f3d011682016040523d82523d6000602084013e611f0c565b606091505b5091509150611f1c828286611f28565b92505050949350505050565b60608315611f3857829050611fed565b600083511115611f4b5782518084602001fd5b816040517f08c379a00000000000000000000000000000000000000000000000000000000081526004018080602001828103825283818151815260200191508051906020019080838360005b83811015611fb2578082015181840152602081019050611f97565b50505050905090810190601f168015611fdf5780820380516001836020036101000a031916815260200191505b509250505060405180910390fd5b939250505056fe4f776e61626c653a206e6577206f776e657220697320746865207a65726f2061646472657373546f6b656e2062616c616e6365206f662077616c6c6574206e6f7420656e6f756768416464726573733a20696e73756666696369656e742062616c616e636520666f722063616c6c536166654d6174683a206d756c7469706c69636174696f6e206f766572666c6f775361666545524332303a204552433230206f7065726174696f6e20646964206e6f7420737563636565645361666545524332303a20617070726f76652066726f6d206e6f6e2d7a65726f20746f206e6f6e2d7a65726f20616c6c6f77616e6365546f6b656e20616464726573732073686f756c642062652074686520736d61727420636f6e74726163742061646472657373a26469706673582212202b218d84834e2fff517cd56fad75db153f00f8ab70754466ca06be357d2632fe64736f6c63430007060033",
  "devdoc": {
    "kind": "dev",
    "methods": {
      "owner()": {
        "details": "Returns the address of the current owner."
      },
      "renounceOwnership()": {
        "details": "Leaves the contract without owner. It will not be possible to call `onlyOwner` functions anymore. Can only be called by the current owner. NOTE: Renouncing ownership will leave the contract without an owner, thereby removing any functionality that is only available to the owner."
      },
      "transferOwnership(address)": {
        "details": "Transfers ownership of the contract to a new account (`newOwner`). Can only be called by the current owner."
      }
    },
    "version": 1
  },
  "userdoc": {
    "kind": "user",
    "methods": {},
    "version": 1
  },
  "storageLayout": {
    "storage": [
      {
        "astId": 7,
        "contract": "contracts/DVDUniBot.sol:DVDUniBot",
        "label": "_owner",
        "offset": 0,
        "slot": "0",
        "type": "t_address"
      },
      {
        "astId": 1588,
        "contract": "contracts/DVDUniBot.sol:DVDUniBot",
        "label": "_status",
        "offset": 0,
        "slot": "1",
        "type": "t_uint256"
      },
      {
        "astId": 1647,
        "contract": "contracts/DVDUniBot.sol:DVDUniBot",
        "label": "dvd",
        "offset": 0,
        "slot": "2",
        "type": "t_contract(IERC20)1045"
      },
      {
        "astId": 1649,
        "contract": "contracts/DVDUniBot.sol:DVDUniBot",
        "label": "xdvd",
        "offset": 0,
        "slot": "3",
        "type": "t_contract(IERC20)1045"
      },
      {
        "astId": 1651,
        "contract": "contracts/DVDUniBot.sol:DVDUniBot",
        "label": "router",
        "offset": 0,
        "slot": "4",
        "type": "t_contract(IUniswapV2Router02)2401"
      },
      {
        "astId": 1653,
        "contract": "contracts/DVDUniBot.sol:DVDUniBot",
        "label": "wallet",
        "offset": 0,
        "slot": "5",
        "type": "t_address"
      },
      {
        "astId": 1656,
        "contract": "contracts/DVDUniBot.sol:DVDUniBot",
        "label": "minAmount",
        "offset": 0,
        "slot": "6",
        "type": "t_uint256"
      },
      {
        "astId": 1659,
        "contract": "contracts/DVDUniBot.sol:DVDUniBot",
        "label": "amount",
        "offset": 0,
        "slot": "7",
        "type": "t_uint256"
      },
      {
        "astId": 1663,
        "contract": "contracts/DVDUniBot.sol:DVDUniBot",
        "label": "token",
        "offset": 0,
        "slot": "8",
        "type": "t_mapping(t_contract(IERC20)1045,t_struct(Token)1645_storage)"
      }
    ],
    "types": {
      "t_address": {
        "encoding": "inplace",
        "label": "address",
        "numberOfBytes": "20"
      },
      "t_bool": {
        "encoding": "inplace",
        "label": "bool",
        "numberOfBytes": "1"
      },
      "t_contract(IERC20)1045": {
        "encoding": "inplace",
        "label": "contract IERC20",
        "numberOfBytes": "20"
      },
      "t_contract(IUniswapV2Router02)2401": {
        "encoding": "inplace",
        "label": "contract IUniswapV2Router02",
        "numberOfBytes": "20"
      },
      "t_mapping(t_contract(IERC20)1045,t_struct(Token)1645_storage)": {
        "encoding": "mapping",
        "key": "t_contract(IERC20)1045",
        "label": "mapping(contract IERC20 => struct DVDUniBot.Token)",
        "numberOfBytes": "32",
        "value": "t_struct(Token)1645_storage"
      },
      "t_struct(Token)1645_storage": {
        "encoding": "inplace",
        "label": "struct DVDUniBot.Token",
        "members": [
          {
            "astId": 1642,
            "contract": "contracts/DVDUniBot.sol:DVDUniBot",
            "label": "allowed",
            "offset": 0,
            "slot": "0",
            "type": "t_bool"
          },
          {
            "astId": 1644,
            "contract": "contracts/DVDUniBot.sol:DVDUniBot",
            "label": "decimals",
            "offset": 0,
            "slot": "1",
            "type": "t_uint256"
          }
        ],
        "numberOfBytes": "64"
      },
      "t_uint256": {
        "encoding": "inplace",
        "label": "uint256",
        "numberOfBytes": "32"
      }
    }
  }
}